{
  "contractName": "DRDS",
  "abi": [
    {
      "anonymous": false,
      "inputs": [
        {
          "indexed": true,
          "name": "userAddress",
          "type": "address"
        },
        {
          "indexed": false,
          "name": "fileHash",
          "type": "string"
        }
      ],
      "name": "FileHashAdded",
      "type": "event",
      "signature": "0x0b98c67a9430b2694f10d666165b9bcc7e6d54da4f4efac4efae157f2ece8602"
    },
    {
      "anonymous": false,
      "inputs": [
        {
          "indexed": true,
          "name": "userAddress",
          "type": "address"
        },
        {
          "indexed": false,
          "name": "firstFileHash",
          "type": "string"
        },
        {
          "indexed": false,
          "name": "newFileName",
          "type": "string"
        },
        {
          "indexed": false,
          "name": "newFileHash",
          "type": "string"
        }
      ],
      "name": "FileEdited",
      "type": "event",
      "signature": "0x46e4733c60e3dd55ec2a25f714f7eb6c0de2bad144b40b30f50a17208cca6819"
    },
    {
      "constant": false,
      "inputs": [
        {
          "name": "_fileName",
          "type": "string"
        },
        {
          "name": "_fileHash",
          "type": "string"
        }
      ],
      "name": "addFileHash",
      "outputs": [],
      "payable": false,
      "stateMutability": "nonpayable",
      "type": "function",
      "signature": "0xce77d52b"
    },
    {
      "constant": false,
      "inputs": [
        {
          "name": "_oldFileHash",
          "type": "string"
        },
        {
          "name": "_newFileName",
          "type": "string"
        },
        {
          "name": "_newFileHash",
          "type": "string"
        }
      ],
      "name": "editFile",
      "outputs": [],
      "payable": false,
      "stateMutability": "nonpayable",
      "type": "function",
      "signature": "0x010bfe25"
    },
    {
      "constant": true,
      "inputs": [],
      "name": "getUploadedFiles",
      "outputs": [
        {
          "components": [
            {
              "name": "fileName",
              "type": "string"
            },
            {
              "name": "fileHash",
              "type": "string"
            }
          ],
          "name": "",
          "type": "tuple[]"
        }
      ],
      "payable": false,
      "stateMutability": "view",
      "type": "function",
      "signature": "0xed854c3d"
    },
    {
      "constant": true,
      "inputs": [
        {
          "name": "_firstFileHash",
          "type": "string"
        }
      ],
      "name": "getLatestVersionOfFile",
      "outputs": [
        {
          "components": [
            {
              "name": "fileName",
              "type": "string"
            },
            {
              "name": "fileHash",
              "type": "string"
            }
          ],
          "name": "",
          "type": "tuple"
        }
      ],
      "payable": false,
      "stateMutability": "view",
      "type": "function",
      "signature": "0x4907904b"
    },
    {
      "constant": true,
      "inputs": [
        {
          "name": "_editedFileHash",
          "type": "string"
        }
      ],
      "name": "getFirstVersionOfFile",
      "outputs": [
        {
          "components": [
            {
              "name": "fileName",
              "type": "string"
            },
            {
              "name": "fileHash",
              "type": "string"
            }
          ],
          "name": "",
          "type": "tuple"
        }
      ],
      "payable": false,
      "stateMutability": "view",
      "type": "function",
      "signature": "0x6790c102"
    }
  ],
  "bytecode": "0x608060405234801561001057600080fd5b506119e8806100206000396000f3fe60806040526004361061006d576000357c0100000000000000000000000000000000000000000000000000000000900463ffffffff168063010bfe25146100725780634907904b1461009b5780636790c102146100d8578063ce77d52b14610115578063ed854c3d1461013e575b600080fd5b34801561007e57600080fd5b5061009960048036036100949190810190611474565b610169565b005b3480156100a757600080fd5b506100c260048036036100bd91908101906113c7565b610912565b6040516100cf91906118a5565b60405180910390f35b3480156100e457600080fd5b506100ff60048036036100fa91908101906113c7565b610adb565b60405161010c91906118a5565b60405180910390f35b34801561012157600080fd5b5061013c60048036036101379190810190611408565b610ca4565b005b34801561014a57600080fd5b506101536110d2565b6040516101609190611795565b60405180910390f35b3373ffffffffffffffffffffffffffffffffffffffff166000846040518082805190602001908083835b6020831015156101b85780518252602082019150602081019050602083039250610193565b6001836020036101000a038019825116818451168082178552505050505050905001915050908152602001604051809103902060009054906101000a900473ffffffffffffffffffffffffffffffffffffffff1673ffffffffffffffffffffffffffffffffffffffff16141515610264576040517f08c379a000000000000000000000000000000000000000000000000000000000815260040161025b90611885565b60405180910390fd5b600073ffffffffffffffffffffffffffffffffffffffff166000826040518082805190602001908083835b6020831015156102b4578051825260208201915060208101905060208303925061028f565b6001836020036101000a038019825116818451168082178552505050505050905001915050908152602001604051809103902060009054906101000a900473ffffffffffffffffffffffffffffffffffffffff1673ffffffffffffffffffffffffffffffffffffffff16141515610360576040517f08c379a000000000000000000000000000000000000000000000000000000000815260040161035790611865565b60405180910390fd5b6103686112b2565b6001846040518082805190602001908083835b6020831015156103a0578051825260208201915060208101905060208303925061037b565b6001836020036101000a0380198251168184511680821785525050505050509050019150509081526020016040518091039020604080519081016040529081600082018054600181600116156101000203166002900480601f0160208091040260200160405190810160405280929190818152602001828054600181600116156101000203166002900480156104775780601f1061044c57610100808354040283529160200191610477565b820191906000526020600020905b81548152906001019060200180831161045a57829003601f168201915b50505050508152602001600182018054600181600116156101000203166002900480601f0160208091040260200160405190810160405280929190818152602001828054600181600116156101000203166002900480156105195780601f106104ee57610100808354040283529160200191610519565b820191906000526020600020905b8154815290600101906020018083116104fc57829003601f168201915b50505050508152505090506060600282602001516040518082805190602001908083835b602083101515610562578051825260208201915060208101905060208303925061053d565b6001836020036101000a03801982511681845116808217855250505050505090500191505090815260200160405180910390206001018054600181600116156101000203166002900480601f01602080910402602001604051908101604052809291908181526020018280546001816001161561010002031660029004801561062c5780601f106106015761010080835404028352916020019161062c565b820191906000526020600020905b81548152906001019060200180831161060f57829003601f168201915b5050505050905084805190602001208180519060200120141515610685576040517f08c379a000000000000000000000000000000000000000000000000000000000815260040161067c90611825565b60405180910390fd5b604080519081016040528085815260200184815250600283602001516040518082805190602001908083835b6020831015156106d657805182526020820191506020810190506020830392506106b1565b6001836020036101000a038019825116818451168082178552505050505050905001915050908152602001604051809103902060008201518160000190805190602001906107259291906112cc565b5060208201518160010190805190602001906107429291906112cc565b5090505060408051908101604052808360000151815260200183602001518152506001846040518082805190602001908083835b60208310151561079b5780518252602082019150602081019050602083039250610776565b6001836020036101000a038019825116818451168082178552505050505050905001915050908152602001604051809103902060008201518160000190805190602001906107ea9291906112cc565b5060208201518160010190805190602001906108079291906112cc565b50905050336000846040518082805190602001908083835b602083101515610844578051825260208201915060208101905060208303925061081f565b6001836020036101000a038019825116818451168082178552505050505050905001915050908152602001604051809103902060006101000a81548173ffffffffffffffffffffffffffffffffffffffff021916908373ffffffffffffffffffffffffffffffffffffffff1602179055503373ffffffffffffffffffffffffffffffffffffffff167f46e4733c60e3dd55ec2a25f714f7eb6c0de2bad144b40b30f50a17208cca681983602001518686604051610903939291906117d9565b60405180910390a25050505050565b61091a6112b2565b6002826040518082805190602001908083835b602083101515610952578051825260208201915060208101905060208303925061092d565b6001836020036101000a0380198251168184511680821785525050505050509050019150509081526020016040518091039020604080519081016040529081600082018054600181600116156101000203166002900480601f016020809104026020016040519081016040528092919081815260200182805460018160011615610100020316600290048015610a295780601f106109fe57610100808354040283529160200191610a29565b820191906000526020600020905b815481529060010190602001808311610a0c57829003601f168201915b50505050508152602001600182018054600181600116156101000203166002900480601f016020809104026020016040519081016040528092919081815260200182805460018160011615610100020316600290048015610acb5780601f10610aa057610100808354040283529160200191610acb565b820191906000526020600020905b815481529060010190602001808311610aae57829003601f168201915b5050505050815250509050919050565b610ae36112b2565b6001826040518082805190602001908083835b602083101515610b1b5780518252602082019150602081019050602083039250610af6565b6001836020036101000a0380198251168184511680821785525050505050509050019150509081526020016040518091039020604080519081016040529081600082018054600181600116156101000203166002900480601f016020809104026020016040519081016040528092919081815260200182805460018160011615610100020316600290048015610bf25780601f10610bc757610100808354040283529160200191610bf2565b820191906000526020600020905b815481529060010190602001808311610bd557829003601f168201915b50505050508152602001600182018054600181600116156101000203166002900480601f016020809104026020016040519081016040528092919081815260200182805460018160011615610100020316600290048015610c945780601f10610c6957610100808354040283529160200191610c94565b820191906000526020600020905b815481529060010190602001808311610c7757829003601f168201915b5050505050815250509050919050565b600073ffffffffffffffffffffffffffffffffffffffff166000826040518082805190602001908083835b602083101515610cf45780518252602082019150602081019050602083039250610ccf565b6001836020036101000a038019825116818451168082178552505050505050905001915050908152602001604051809103902060009054906101000a900473ffffffffffffffffffffffffffffffffffffffff1673ffffffffffffffffffffffffffffffffffffffff16141515610da0576040517f08c379a0000000000000000000000000000000000000000000000000000000008152600401610d9790611845565b60405180910390fd5b336000826040518082805190602001908083835b602083101515610dd95780518252602082019150602081019050602083039250610db4565b6001836020036101000a038019825116818451168082178552505050505050905001915050908152602001604051809103902060006101000a81548173ffffffffffffffffffffffffffffffffffffffff021916908373ffffffffffffffffffffffffffffffffffffffff160217905550600360003373ffffffffffffffffffffffffffffffffffffffff1673ffffffffffffffffffffffffffffffffffffffff168152602001908152602001600020604080519081016040528084815260200183815250908060018154018082558091505090600182039060005260206000209060020201600090919290919091506000820151816000019080519060200190610ee59291906112cc565b506020820151816001019080519060200190610f029291906112cc565b505050506040805190810160405280838152602001828152506001826040518082805190602001908083835b602083101515610f535780518252602082019150602081019050602083039250610f2e565b6001836020036101000a03801982511681845116808217855250505050505090500191505090815260200160405180910390206000820151816000019080519060200190610fa29291906112cc565b506020820151816001019080519060200190610fbf9291906112cc565b509050506040805190810160405280838152602001828152506002826040518082805190602001908083835b6020831015156110105780518252602082019150602081019050602083039250610feb565b6001836020036101000a0380198251168184511680821785525050505050509050019150509081526020016040518091039020600082015181600001908051906020019061105f9291906112cc565b50602082015181600101908051906020019061107c9291906112cc565b509050503373ffffffffffffffffffffffffffffffffffffffff167f0b98c67a9430b2694f10d666165b9bcc7e6d54da4f4efac4efae157f2ece8602826040516110c691906117b7565b60405180910390a25050565b6060600360003373ffffffffffffffffffffffffffffffffffffffff1673ffffffffffffffffffffffffffffffffffffffff168152602001908152602001600020805480602002602001604051908101604052809291908181526020016000905b828210156112a95783829060005260206000209060020201604080519081016040529081600082018054600181600116156101000203166002900480601f0160208091040260200160405190810160405280929190818152602001828054600181600116156101000203166002900480156111ef5780601f106111c4576101008083540402835291602001916111ef565b820191906000526020600020905b8154815290600101906020018083116111d257829003601f168201915b50505050508152602001600182018054600181600116156101000203166002900480601f0160208091040260200160405190810160405280929190818152602001828054600181600116156101000203166002900480156112915780601f1061126657610100808354040283529160200191611291565b820191906000526020600020905b81548152906001019060200180831161127457829003601f168201915b50505050508152505081526020019060010190611133565b50505050905090565b604080519081016040528060608152602001606081525090565b828054600181600116156101000203166002900490600052602060002090601f016020900481019282601f1061130d57805160ff191683800117855561133b565b8280016001018555821561133b579182015b8281111561133a57825182559160200191906001019061131f565b5b509050611348919061134c565b5090565b61136e91905b8082111561136a576000816000905550600101611352565b5090565b90565b600082601f830112151561138457600080fd5b8135611397611392826118f4565b6118c7565b915080825260208301602083018583830111156113b357600080fd5b6113be83828461195b565b50505092915050565b6000602082840312156113d957600080fd5b600082013567ffffffffffffffff8111156113f357600080fd5b6113ff84828501611371565b91505092915050565b6000806040838503121561141b57600080fd5b600083013567ffffffffffffffff81111561143557600080fd5b61144185828601611371565b925050602083013567ffffffffffffffff81111561145e57600080fd5b61146a85828601611371565b9150509250929050565b60008060006060848603121561148957600080fd5b600084013567ffffffffffffffff8111156114a357600080fd5b6114af86828701611371565b935050602084013567ffffffffffffffff8111156114cc57600080fd5b6114d886828701611371565b925050604084013567ffffffffffffffff8111156114f557600080fd5b61150186828701611371565b9150509250925092565b60006115168261192d565b8084526020840193508360208202850161152f85611920565b60005b8481101561156857838303885261154a838351611751565b92506115558261194e565b9150602088019750600181019050611532565b508196508694505050505092915050565b600061158482611943565b80845261159881602086016020860161196a565b6115a18161199d565b602085010191505092915050565b60006115ba82611938565b8084526115ce81602086016020860161196a565b6115d78161199d565b602085010191505092915050565b6000603082527f596f752063616e2065646974206f6e6c7920746865206c61737420766572736960208301527f6f6e206f6620796f75722066696c6521000000000000000000000000000000006040830152606082019050919050565b6000601b82527f46696c6520616c726561647920696e207468652073797374656d2100000000006020830152604082019050919050565b6000603282527f546865206e65772076657273696f6e206f6620796f75722066696c652077617360208301527f20616c72656164792075706c6f616465642100000000000000000000000000006040830152606082019050919050565b6000601d82527f596f7520646964206e6f742075706c6f616420746861742066696c65210000006020830152604082019050919050565b6000604083016000830151848203600086015261172a82826115af565b9150506020830151848203602086015261174482826115af565b9150508091505092915050565b6000604083016000830151848203600086015261176e82826115af565b9150506020830151848203602086015261178882826115af565b9150508091505092915050565b600060208201905081810360008301526117af818461150b565b905092915050565b600060208201905081810360008301526117d18184611579565b905092915050565b600060608201905081810360008301526117f381866115af565b905081810360208301526118078185611579565b9050818103604083015261181b8184611579565b9050949350505050565b6000602082019050818103600083015261183e816115e5565b9050919050565b6000602082019050818103600083015261185e81611642565b9050919050565b6000602082019050818103600083015261187e81611679565b9050919050565b6000602082019050818103600083015261189e816116d6565b9050919050565b600060208201905081810360008301526118bf818461170d565b905092915050565b6000604051905081810181811067ffffffffffffffff821117156118ea57600080fd5b8060405250919050565b600067ffffffffffffffff82111561190b57600080fd5b601f19601f8301169050602081019050919050565b6000602082019050919050565b600081519050919050565b600081519050919050565b600081519050919050565b6000602082019050919050565b82818337600083830152505050565b60005b8381101561198857808201518184015260208101905061196d565b83811115611997576000848401525b50505050565b6000601f19601f830116905091905056fea265627a7a72305820f739bd9c17fb79aab78a19b8a4b4a3bbc6c1a044e7063e46715e7caaf627fefc6c6578706572696d656e74616cf50037",
  "source": "pragma solidity ^0.5.0;\r\npragma experimental ABIEncoderV2; // so that I can return structs from a function\r\n\r\ncontract DRDS {\r\n\r\n    struct FileInfo {\r\n        string fileName;\r\n        string fileHash;\r\n    }\r\n\r\n    mapping(string => address) fileHashes;\r\n    mapping(string => FileInfo) firstVersionOfFile;\r\n    mapping(string => FileInfo) latestVersionOfFile;\r\n    mapping(address => FileInfo[]) uploadedFiles;\r\n\r\n    event FileHashAdded(address indexed userAddress, string fileHash);\r\n    event FileEdited(address indexed userAddress, string firstFileHash, string newFileName, string newFileHash);\r\n\r\n    function addFileHash(string memory _fileName, string memory _fileHash) public {\r\n        require(fileHashes[_fileHash] == address(0), \"File already in the system!\");\r\n\r\n        fileHashes[_fileHash] = msg.sender;\r\n        uploadedFiles[msg.sender].push(FileInfo(_fileName, _fileHash));\r\n\r\n        firstVersionOfFile[_fileHash] = FileInfo(_fileName, _fileHash);\r\n        latestVersionOfFile[_fileHash] = FileInfo(_fileName, _fileHash);\r\n\r\n        emit FileHashAdded(msg.sender, _fileHash);\r\n    }\r\n\r\n    function editFile(string memory _oldFileHash, string memory _newFileName, string memory _newFileHash) public {\r\n        require(fileHashes[_oldFileHash] == msg.sender, \"You did not upload that file!\");\r\n        require(fileHashes[_newFileHash] == address(0), \"The new version of your file was already uploaded!\");\r\n\r\n        FileInfo memory _firstFileInfo = firstVersionOfFile[_oldFileHash];\r\n        string memory latestVersionFileInfoHash = latestVersionOfFile[_firstFileInfo.fileHash].fileHash;\r\n        require(keccak256(bytes(latestVersionFileInfoHash)) == keccak256(bytes(_oldFileHash)), \"You can edit only the last version of your file!\");\r\n\r\n        latestVersionOfFile[_firstFileInfo.fileHash] = FileInfo(_newFileName, _newFileHash);\r\n        firstVersionOfFile[_newFileHash] = FileInfo(_firstFileInfo.fileName, _firstFileInfo.fileHash);\r\n        fileHashes[_newFileHash] = msg.sender;\r\n\r\n        emit FileEdited(msg.sender, _firstFileInfo.fileHash, _newFileName, _newFileHash);\r\n    }\r\n\r\n    function getUploadedFiles() public view returns (FileInfo[] memory) {\r\n        return uploadedFiles[msg.sender];\r\n    }\r\n\r\n    function getLatestVersionOfFile(string memory _firstFileHash) public view returns (FileInfo memory) {\r\n        return latestVersionOfFile[_firstFileHash];\r\n    }\r\n\r\n    function getFirstVersionOfFile(string memory _editedFileHash) public view returns (FileInfo memory) {\r\n        return firstVersionOfFile[_editedFileHash];\r\n    }\r\n}",
  "sourcePath": "C:/Users/Ionut/Desktop/LICENTA FINAL PROJECT/frontend/src/contracts/DRDS.sol",
  "compiler": {
    "name": "solc",
    "version": "0.5.0+commit.1d4f565a.Emscripten.clang"
  },
  "schemaVersion": "3.0.2",
  "updatedAt": "2020-04-29T17:43:27.802Z",
  "devdoc": {
    "methods": {}
  },
  "userdoc": {
    "methods": {}
  }
}