{
  "contractName": "DRDS",
  "abi": [
    {
      "anonymous": false,
      "inputs": [
        {
          "indexed": true,
          "name": "userAddress",
          "type": "address"
        },
        {
          "indexed": false,
          "name": "fileHash",
          "type": "string"
        }
      ],
      "name": "FileHashAdded",
      "type": "event",
      "signature": "0x0b98c67a9430b2694f10d666165b9bcc7e6d54da4f4efac4efae157f2ece8602"
    },
    {
      "constant": false,
      "inputs": [
        {
          "name": "_fileName",
          "type": "string"
        },
        {
          "name": "_fileHash",
          "type": "string"
        }
      ],
      "name": "addFileHash",
      "outputs": [],
      "payable": false,
      "stateMutability": "nonpayable",
      "type": "function",
      "signature": "0xce77d52b"
    },
    {
      "constant": true,
      "inputs": [],
      "name": "getUploadedFiles",
      "outputs": [
        {
          "components": [
            {
              "name": "fileName",
              "type": "string"
            },
            {
              "name": "fileHash",
              "type": "string"
            }
          ],
          "name": "",
          "type": "tuple[]"
        }
      ],
      "payable": false,
      "stateMutability": "view",
      "type": "function",
      "signature": "0xed854c3d"
    }
  ],
  "bytecode": "0x608060405234801561001057600080fd5b5061097a806100206000396000f3fe60806040526004361061004c576000357c0100000000000000000000000000000000000000000000000000000000900463ffffffff168063ce77d52b14610051578063ed854c3d1461007a575b600080fd5b34801561005d57600080fd5b5061007860048036036100739190810190610634565b6100a5565b005b34801561008657600080fd5b5061008f610359565b60405161009c91906107f5565b60405180910390f35b600073ffffffffffffffffffffffffffffffffffffffff166000826040518082805190602001908083835b6020831015156100f557805182526020820191506020810190506020830392506100d0565b6001836020036101000a038019825116818451168082178552505050505050905001915050908152602001604051809103902060009054906101000a900473ffffffffffffffffffffffffffffffffffffffff1673ffffffffffffffffffffffffffffffffffffffff161415156101a1576040517f08c379a000000000000000000000000000000000000000000000000000000000815260040161019890610839565b60405180910390fd5b336000826040518082805190602001908083835b6020831015156101da57805182526020820191506020810190506020830392506101b5565b6001836020036101000a038019825116818451168082178552505050505050905001915050908152602001604051809103902060006101000a81548173ffffffffffffffffffffffffffffffffffffffff021916908373ffffffffffffffffffffffffffffffffffffffff160217905550600260003373ffffffffffffffffffffffffffffffffffffffff1673ffffffffffffffffffffffffffffffffffffffff1681526020019081526020016000206040805190810160405280848152602001838152509080600181540180825580915050906001820390600052602060002090600202016000909192909190915060008201518160000190805190602001906102e6929190610539565b506020820151816001019080519060200190610303929190610539565b505050503373ffffffffffffffffffffffffffffffffffffffff167f0b98c67a9430b2694f10d666165b9bcc7e6d54da4f4efac4efae157f2ece86028260405161034d9190610817565b60405180910390a25050565b6060600260003373ffffffffffffffffffffffffffffffffffffffff1673ffffffffffffffffffffffffffffffffffffffff168152602001908152602001600020805480602002602001604051908101604052809291908181526020016000905b828210156105305783829060005260206000209060020201604080519081016040529081600082018054600181600116156101000203166002900480601f0160208091040260200160405190810160405280929190818152602001828054600181600116156101000203166002900480156104765780601f1061044b57610100808354040283529160200191610476565b820191906000526020600020905b81548152906001019060200180831161045957829003601f168201915b50505050508152602001600182018054600181600116156101000203166002900480601f0160208091040260200160405190810160405280929190818152602001828054600181600116156101000203166002900480156105185780601f106104ed57610100808354040283529160200191610518565b820191906000526020600020905b8154815290600101906020018083116104fb57829003601f168201915b505050505081525050815260200190600101906103ba565b50505050905090565b828054600181600116156101000203166002900490600052602060002090601f016020900481019282601f1061057a57805160ff19168380011785556105a8565b828001600101855582156105a8579182015b828111156105a757825182559160200191906001019061058c565b5b5090506105b591906105b9565b5090565b6105db91905b808211156105d75760008160009055506001016105bf565b5090565b90565b600082601f83011215156105f157600080fd5b81356106046105ff82610886565b610859565b9150808252602083016020830185838301111561062057600080fd5b61062b8382846108ed565b50505092915050565b6000806040838503121561064757600080fd5b600083013567ffffffffffffffff81111561066157600080fd5b61066d858286016105de565b925050602083013567ffffffffffffffff81111561068a57600080fd5b610696858286016105de565b9150509250929050565b60006106ab826108bf565b808452602084019350836020820285016106c4856108b2565b60005b848110156106fd5783830388526106df8383516107b1565b92506106ea826108e0565b91506020880197506001810190506106c7565b508196508694505050505092915050565b6000610719826108d5565b80845261072d8160208601602086016108fc565b6107368161092f565b602085010191505092915050565b600061074f826108ca565b8084526107638160208601602086016108fc565b61076c8161092f565b602085010191505092915050565b6000601b82527f46696c6520616c726561647920696e207468652073797374656d2100000000006020830152604082019050919050565b600060408301600083015184820360008601526107ce8282610744565b915050602083015184820360208601526107e88282610744565b9150508091505092915050565b6000602082019050818103600083015261080f81846106a0565b905092915050565b60006020820190508181036000830152610831818461070e565b905092915050565b600060208201905081810360008301526108528161077a565b9050919050565b6000604051905081810181811067ffffffffffffffff8211171561087c57600080fd5b8060405250919050565b600067ffffffffffffffff82111561089d57600080fd5b601f19601f8301169050602081019050919050565b6000602082019050919050565b600081519050919050565b600081519050919050565b600081519050919050565b6000602082019050919050565b82818337600083830152505050565b60005b8381101561091a5780820151818401526020810190506108ff565b83811115610929576000848401525b50505050565b6000601f19601f830116905091905056fea265627a7a723058203c16f09ff533ffd085a971f3192451fb53a1c06194faa7436c0f0c70099225436c6578706572696d656e74616cf50037",
  "source": "pragma solidity ^0.5.0;\r\npragma experimental ABIEncoderV2; // so that I can return structs from a function\r\n\r\ncontract DRDS {\r\n\r\n    struct FileInfo {\r\n        string fileName;\r\n        string fileHash;\r\n    }\r\n\r\n    event FileHashAdded(address indexed userAddress, string fileHash);\r\n\r\n    // sa tin istoricul update-urilor\r\n    // event pentru register / add file hash\r\n    // event pentru un update la un fisier deja incarcat\r\n\r\n    // ca owner ar trebuit sa poti face la update la un fisier incarcat (cu nou hash?)\r\n\r\n    mapping(string => address) fileHashes;\r\n    // first string: file-label / about what info I refer to. First file hash?\r\n    // second string: new, edited file hash\r\n    // SAU\r\n    // first string: file name (ex: poza1.jpg)\r\n    // second string: file hash\r\n    mapping(address => mapping(string => string)) allFiles;\r\n\r\n    mapping(address => FileInfo[]) uploadedFiles;\r\n    // istoric il scot din event-uri\r\n\r\n    function addFileHash(string memory _fileName, string memory _fileHash) public {\r\n        require(fileHashes[_fileHash] == address(0), \"File already in the system!\");\r\n\r\n        fileHashes[_fileHash] = msg.sender;\r\n        uploadedFiles[msg.sender].push(FileInfo(_fileName, _fileHash));\r\n        emit FileHashAdded(msg.sender, _fileHash);\r\n    }\r\n\r\n    function getUploadedFiles() public view returns (FileInfo[] memory) {\r\n        return uploadedFiles[msg.sender];\r\n    }\r\n}",
  "sourcePath": "C:/Users/Ionut/Desktop/LICENTA FINAL PROJECT/frontend/src/contracts/DRDS.sol",
  "compiler": {
    "name": "solc",
    "version": "0.5.0+commit.1d4f565a.Emscripten.clang"
  },
  "schemaVersion": "3.0.2",
  "updatedAt": "2020-04-27T17:10:51.579Z",
  "devdoc": {
    "methods": {}
  },
  "userdoc": {
    "methods": {}
  }
}