{
  "contractName": "DRDS",
  "abi": [
    {
      "anonymous": false,
      "inputs": [
        {
          "indexed": true,
          "name": "userAddress",
          "type": "address"
        },
        {
          "indexed": false,
          "name": "fileHash",
          "type": "string"
        }
      ],
      "name": "FileHashAdded",
      "type": "event",
      "signature": "0x0b98c67a9430b2694f10d666165b9bcc7e6d54da4f4efac4efae157f2ece8602"
    },
    {
      "constant": false,
      "inputs": [
        {
          "name": "_fileName",
          "type": "string"
        },
        {
          "name": "_fileHash",
          "type": "string"
        },
        {
          "name": "_username",
          "type": "string"
        }
      ],
      "name": "addFileHash",
      "outputs": [],
      "payable": false,
      "stateMutability": "nonpayable",
      "type": "function",
      "signature": "0x6831daee"
    },
    {
      "constant": true,
      "inputs": [
        {
          "name": "_fileHash",
          "type": "string"
        }
      ],
      "name": "getAuthor",
      "outputs": [
        {
          "components": [
            {
              "name": "addr",
              "type": "address"
            },
            {
              "name": "username",
              "type": "string"
            }
          ],
          "name": "author",
          "type": "tuple"
        }
      ],
      "payable": false,
      "stateMutability": "view",
      "type": "function",
      "signature": "0x350d94d4"
    },
    {
      "constant": false,
      "inputs": [
        {
          "name": "_username",
          "type": "string"
        }
      ],
      "name": "addUsername",
      "outputs": [],
      "payable": false,
      "stateMutability": "nonpayable",
      "type": "function",
      "signature": "0x755c1fd8"
    },
    {
      "constant": true,
      "inputs": [],
      "name": "getUsername",
      "outputs": [
        {
          "name": "",
          "type": "string"
        }
      ],
      "payable": false,
      "stateMutability": "view",
      "type": "function",
      "signature": "0x681f3e6d"
    },
    {
      "constant": true,
      "inputs": [],
      "name": "getUploadedFiles",
      "outputs": [
        {
          "components": [
            {
              "name": "fileName",
              "type": "string"
            },
            {
              "name": "fileHash",
              "type": "string"
            }
          ],
          "name": "",
          "type": "tuple[]"
        }
      ],
      "payable": false,
      "stateMutability": "view",
      "type": "function",
      "signature": "0xed854c3d"
    }
  ],
  "bytecode": "0x608060405234801561001057600080fd5b50610ef0806100206000396000f3fe60806040526004361061006d576000357c0100000000000000000000000000000000000000000000000000000000900463ffffffff168063350d94d414610072578063681f3e6d146100af5780636831daee146100da578063755c1fd814610103578063ed854c3d1461012c575b600080fd5b34801561007e57600080fd5b5061009960048036036100949190810190610a9e565b610157565b6040516100a69190610d7b565b60405180910390f35b3480156100bb57600080fd5b506100c46102d4565b6040516100d19190610d39565b60405180910390f35b3480156100e657600080fd5b5061010160048036036100fc9190810190610adf565b6103b2565b005b34801561010f57600080fd5b5061012a60048036036101259190810190610a9e565b6106bd565b005b34801561013857600080fd5b50610141610713565b60405161014e9190610d17565b60405180910390f35b61015f6108f3565b6001826040518082805190602001908083835b6020831015156101975780518252602082019150602081019050602083039250610172565b6001836020036101000a03801982511681845116808217855250505050505090500191505090815260200160405180910390206040805190810160405290816000820160009054906101000a900473ffffffffffffffffffffffffffffffffffffffff1673ffffffffffffffffffffffffffffffffffffffff1673ffffffffffffffffffffffffffffffffffffffff168152602001600182018054600181600116156101000203166002900480601f0160208091040260200160405190810160405280929190818152602001828054600181600116156101000203166002900480156102c45780601f10610299576101008083540402835291602001916102c4565b820191906000526020600020905b8154815290600101906020018083116102a757829003601f168201915b5050505050815250509050919050565b60606000803373ffffffffffffffffffffffffffffffffffffffff1673ffffffffffffffffffffffffffffffffffffffff1681526020019081526020016000208054600181600116156101000203166002900480601f0160208091040260200160405190810160405280929190818152602001828054600181600116156101000203166002900480156103a85780601f1061037d576101008083540402835291602001916103a8565b820191906000526020600020905b81548152906001019060200180831161038b57829003601f168201915b5050505050905090565b600073ffffffffffffffffffffffffffffffffffffffff166001836040518082805190602001908083835b60208310151561040257805182526020820191506020810190506020830392506103dd565b6001836020036101000a038019825116818451168082178552505050505050905001915050908152602001604051809103902060000160009054906101000a900473ffffffffffffffffffffffffffffffffffffffff1673ffffffffffffffffffffffffffffffffffffffff161415156104b1576040517f08c379a00000000000000000000000000000000000000000000000000000000081526004016104a890610d5b565b60405180910390fd5b60408051908101604052803373ffffffffffffffffffffffffffffffffffffffff168152602001828152506001836040518082805190602001908083835b60208310151561051457805182526020820191506020810190506020830392506104ef565b6001836020036101000a038019825116818451168082178552505050505050905001915050908152602001604051809103902060008201518160000160006101000a81548173ffffffffffffffffffffffffffffffffffffffff021916908373ffffffffffffffffffffffffffffffffffffffff16021790555060208201518160010190805190602001906105aa929190610923565b50905050600360003373ffffffffffffffffffffffffffffffffffffffff1673ffffffffffffffffffffffffffffffffffffffff168152602001908152602001600020604080519081016040528085815260200184815250908060018154018082558091505090600182039060005260206000209060020201600090919290919091506000820151816000019080519060200190610649929190610923565b506020820151816001019080519060200190610666929190610923565b505050503373ffffffffffffffffffffffffffffffffffffffff167f0b98c67a9430b2694f10d666165b9bcc7e6d54da4f4efac4efae157f2ece8602836040516106b09190610d39565b60405180910390a2505050565b806000803373ffffffffffffffffffffffffffffffffffffffff1673ffffffffffffffffffffffffffffffffffffffff168152602001908152602001600020908051906020019061070f9291906109a3565b5050565b6060600360003373ffffffffffffffffffffffffffffffffffffffff1673ffffffffffffffffffffffffffffffffffffffff168152602001908152602001600020805480602002602001604051908101604052809291908181526020016000905b828210156108ea5783829060005260206000209060020201604080519081016040529081600082018054600181600116156101000203166002900480601f0160208091040260200160405190810160405280929190818152602001828054600181600116156101000203166002900480156108305780601f1061080557610100808354040283529160200191610830565b820191906000526020600020905b81548152906001019060200180831161081357829003601f168201915b50505050508152602001600182018054600181600116156101000203166002900480601f0160208091040260200160405190810160405280929190818152602001828054600181600116156101000203166002900480156108d25780601f106108a7576101008083540402835291602001916108d2565b820191906000526020600020905b8154815290600101906020018083116108b557829003601f168201915b50505050508152505081526020019060010190610774565b50505050905090565b6040805190810160405280600073ffffffffffffffffffffffffffffffffffffffff168152602001606081525090565b828054600181600116156101000203166002900490600052602060002090601f016020900481019282601f1061096457805160ff1916838001178555610992565b82800160010185558215610992579182015b82811115610991578251825591602001919060010190610976565b5b50905061099f9190610a23565b5090565b828054600181600116156101000203166002900490600052602060002090601f016020900481019282601f106109e457805160ff1916838001178555610a12565b82800160010185558215610a12579182015b82811115610a115782518255916020019190600101906109f6565b5b509050610a1f9190610a23565b5090565b610a4591905b80821115610a41576000816000905550600101610a29565b5090565b90565b600082601f8301121515610a5b57600080fd5b8135610a6e610a6982610dca565b610d9d565b91508082526020830160208301858383011115610a8a57600080fd5b610a95838284610e63565b50505092915050565b600060208284031215610ab057600080fd5b600082013567ffffffffffffffff811115610aca57600080fd5b610ad684828501610a48565b91505092915050565b600080600060608486031215610af457600080fd5b600084013567ffffffffffffffff811115610b0e57600080fd5b610b1a86828701610a48565b935050602084013567ffffffffffffffff811115610b3757600080fd5b610b4386828701610a48565b925050604084013567ffffffffffffffff811115610b6057600080fd5b610b6c86828701610a48565b9150509250925092565b610b7f81610e31565b82525050565b6000610b9082610e03565b80845260208401935083602082028501610ba985610df6565b60005b84811015610be2578383038852610bc4838351610c96565b9250610bcf82610e24565b9150602088019750600181019050610bac565b508196508694505050505092915050565b6000610bfe82610e19565b808452610c12816020860160208601610e72565b610c1b81610ea5565b602085010191505092915050565b6000610c3482610e0e565b808452610c48816020860160208601610e72565b610c5181610ea5565b602085010191505092915050565b6000601b82527f46696c6520616c726561647920696e207468652073797374656d2100000000006020830152604082019050919050565b60006040830160008301518482036000860152610cb38282610c29565b91505060208301518482036020860152610ccd8282610c29565b9150508091505092915050565b6000604083016000830151610cf26000860182610b76565b5060208301518482036020860152610d0a8282610c29565b9150508091505092915050565b60006020820190508181036000830152610d318184610b85565b905092915050565b60006020820190508181036000830152610d538184610bf3565b905092915050565b60006020820190508181036000830152610d7481610c5f565b9050919050565b60006020820190508181036000830152610d958184610cda565b905092915050565b6000604051905081810181811067ffffffffffffffff82111715610dc057600080fd5b8060405250919050565b600067ffffffffffffffff821115610de157600080fd5b601f19601f8301169050602081019050919050565b6000602082019050919050565b600081519050919050565b600081519050919050565b600081519050919050565b6000602082019050919050565b6000610e3c82610e43565b9050919050565b600073ffffffffffffffffffffffffffffffffffffffff82169050919050565b82818337600083830152505050565b60005b83811015610e90578082015181840152602081019050610e75565b83811115610e9f576000848401525b50505050565b6000601f19601f830116905091905056fea265627a7a723058202cefe15951436cd6b28e0c001f9ce11a1da71aa176c687348f627b878cc0666c6c6578706572696d656e74616cf50037",
  "source": "pragma solidity ^0.5.0;\r\npragma experimental ABIEncoderV2; // so that I can return structs from a function\r\n\r\ncontract DRDS {\r\n\r\n    struct InformationAuthor {\r\n        address addr;\r\n        string username;\r\n    }\r\n\r\n    struct FileInfo {\r\n        string fileName;\r\n        string fileHash;\r\n    }\r\n\r\n    mapping(address => string) userNames;\r\n    event FileHashAdded(address indexed userAddress, string fileHash);\r\n\r\n    // sa tin istoricul update-urilor\r\n    // event pentru register / add file hash\r\n    // event pentru un update la un fisier deja incarcat\r\n\r\n    // ca owner ar trebuit sa poti face la update la un fisier incarcat (cu nou hash?)\r\n\r\n    mapping(string => InformationAuthor) fileHashes;\r\n    // first string: file-label / about what info I refer to. First file hash?\r\n    // second string: new, edited file hash\r\n    // SAU\r\n    // first string: file name (ex: poza1.jpg)\r\n    // second string: file hash\r\n    mapping(address => mapping(string => string)) allFiles;\r\n\r\n    mapping(address => FileInfo[]) uploadedFiles;\r\n    // istoric il scot din event-uri\r\n\t\r\n\t// sa trimit pe frontend si hash-ul transactiei, ca un fel de bon (receipt)\r\n    // o sa fie din event probabil\r\n\r\n    function addFileHash(string memory _fileName, string memory _fileHash, string memory _username) public {\r\n        require(fileHashes[_fileHash].addr == address(0), \"File already in the system!\");\r\n\r\n        fileHashes[_fileHash] = InformationAuthor({addr : msg.sender, username : _username});\r\n        uploadedFiles[msg.sender].push(FileInfo(_fileName,_fileHash));\r\n        emit FileHashAdded(msg.sender, _fileHash);\r\n    }\r\n\r\n    function getAuthor(string memory _fileHash) public view returns (InformationAuthor memory author) {\r\n        return fileHashes[_fileHash];\r\n    }\r\n\r\n    function addUsername(string memory _username) public {\r\n        userNames[msg.sender] = _username;\r\n    }\r\n\r\n    function getUsername() public view returns (string memory) {\r\n        return userNames[msg.sender];\r\n    }\r\n\r\n    function getUploadedFiles() public view returns (FileInfo[] memory) {\r\n        return uploadedFiles[msg.sender];\r\n    }\r\n}",
  "sourcePath": "C:/Users/Ionut/Desktop/LICENTA FINAL PROJECT/frontend/src/contracts/DRDS.sol",
  "compiler": {
    "name": "solc",
    "version": "0.5.0+commit.1d4f565a.Emscripten.clang"
  },
  "schemaVersion": "3.0.2",
  "updatedAt": "2020-04-25T18:00:47.884Z",
  "devdoc": {
    "methods": {}
  },
  "userdoc": {
    "methods": {}
  }
}