{
  "contractName": "DRDS",
  "abi": [
    {
      "anonymous": false,
      "inputs": [
        {
          "indexed": true,
          "internalType": "address",
          "name": "userAddress",
          "type": "address"
        },
        {
          "indexed": false,
          "internalType": "string",
          "name": "firstFileHash",
          "type": "string"
        },
        {
          "indexed": false,
          "internalType": "string",
          "name": "newFileName",
          "type": "string"
        },
        {
          "indexed": false,
          "internalType": "string",
          "name": "newFileHash",
          "type": "string"
        }
      ],
      "name": "FileEdited",
      "type": "event"
    },
    {
      "anonymous": false,
      "inputs": [
        {
          "indexed": true,
          "internalType": "address",
          "name": "userAddress",
          "type": "address"
        },
        {
          "indexed": false,
          "internalType": "string",
          "name": "fileName",
          "type": "string"
        },
        {
          "indexed": false,
          "internalType": "string",
          "name": "fileHash",
          "type": "string"
        }
      ],
      "name": "FileHashAdded",
      "type": "event"
    },
    {
      "constant": false,
      "inputs": [
        {
          "internalType": "string",
          "name": "_fileName",
          "type": "string"
        },
        {
          "internalType": "string",
          "name": "_fileHash",
          "type": "string"
        }
      ],
      "name": "addFileHash",
      "outputs": [],
      "payable": false,
      "stateMutability": "nonpayable",
      "type": "function"
    },
    {
      "constant": false,
      "inputs": [
        {
          "internalType": "string",
          "name": "_oldFileHash",
          "type": "string"
        },
        {
          "internalType": "string",
          "name": "_newFileName",
          "type": "string"
        },
        {
          "internalType": "string",
          "name": "_newFileHash",
          "type": "string"
        }
      ],
      "name": "editFile",
      "outputs": [],
      "payable": false,
      "stateMutability": "nonpayable",
      "type": "function"
    },
    {
      "constant": true,
      "inputs": [],
      "name": "getUploadedFiles",
      "outputs": [
        {
          "components": [
            {
              "internalType": "string",
              "name": "fileName",
              "type": "string"
            },
            {
              "internalType": "string",
              "name": "fileHash",
              "type": "string"
            }
          ],
          "internalType": "struct DRDS.FileInfo[]",
          "name": "",
          "type": "tuple[]"
        }
      ],
      "payable": false,
      "stateMutability": "view",
      "type": "function"
    },
    {
      "constant": true,
      "inputs": [
        {
          "internalType": "string",
          "name": "_firstFileHash",
          "type": "string"
        }
      ],
      "name": "getLatestVersionOfFile",
      "outputs": [
        {
          "components": [
            {
              "internalType": "string",
              "name": "fileName",
              "type": "string"
            },
            {
              "internalType": "string",
              "name": "fileHash",
              "type": "string"
            }
          ],
          "internalType": "struct DRDS.FileInfo",
          "name": "",
          "type": "tuple"
        }
      ],
      "payable": false,
      "stateMutability": "view",
      "type": "function"
    },
    {
      "constant": true,
      "inputs": [
        {
          "internalType": "string",
          "name": "_editedFileHash",
          "type": "string"
        }
      ],
      "name": "getFirstVersionOfFile",
      "outputs": [
        {
          "components": [
            {
              "internalType": "string",
              "name": "fileName",
              "type": "string"
            },
            {
              "internalType": "string",
              "name": "fileHash",
              "type": "string"
            }
          ],
          "internalType": "struct DRDS.FileInfo",
          "name": "",
          "type": "tuple"
        }
      ],
      "payable": false,
      "stateMutability": "view",
      "type": "function"
    }
  ],
  "bytecode": "0x608060405234801561001057600080fd5b5061170d806100206000396000f3fe608060405234801561001057600080fd5b50600436106100575760003560e01c8063010bfe251461005c5780634907904b146100785780636790c102146100a8578063ce77d52b146100d8578063ed854c3d146100f4575b600080fd5b6100766004803603610071919081019061102c565b610112565b005b610092600480360361008d9190810190610f7f565b61069a565b60405161009f9190611580565b60405180910390f35b6100c260048036036100bd9190810190610f7f565b610816565b6040516100cf9190611580565b60405180910390f35b6100f260048036036100ed9190810190610fc0565b610992565b005b6100fc610c8c565b604051610109919061145b565b60405180910390f35b3373ffffffffffffffffffffffffffffffffffffffff166000846040516101399190611444565b908152602001604051809103902060009054906101000a900473ffffffffffffffffffffffffffffffffffffffff1673ffffffffffffffffffffffffffffffffffffffff16146101be576040517f08c379a00000000000000000000000000000000000000000000000000000000081526004016101b590611560565b60405180910390fd5b600073ffffffffffffffffffffffffffffffffffffffff166000826040516101e69190611444565b908152602001604051809103902060009054906101000a900473ffffffffffffffffffffffffffffffffffffffff1673ffffffffffffffffffffffffffffffffffffffff161461026b576040517f08c379a000000000000000000000000000000000000000000000000000000000815260040161026290611540565b60405180910390fd5b610273610e6c565b6001846040516102839190611444565b9081526020016040518091039020604051806040016040529081600082018054600181600116156101000203166002900480601f0160208091040260200160405190810160405280929190818152602001828054600181600116156101000203166002900480156103355780601f1061030a57610100808354040283529160200191610335565b820191906000526020600020905b81548152906001019060200180831161031857829003601f168201915b50505050508152602001600182018054600181600116156101000203166002900480601f0160208091040260200160405190810160405280929190818152602001828054600181600116156101000203166002900480156103d75780601f106103ac576101008083540402835291602001916103d7565b820191906000526020600020905b8154815290600101906020018083116103ba57829003601f168201915b50505050508152505090506060600282602001516040516103f8919061142d565b90815260200160405180910390206001018054600181600116156101000203166002900480601f01602080910402602001604051908101604052809291908181526020018280546001816001161561010002031660029004801561049d5780601f106104725761010080835404028352916020019161049d565b820191906000526020600020905b81548152906001019060200180831161048057829003601f168201915b5050505050905084805190602001208180519060200120146104f4576040517f08c379a00000000000000000000000000000000000000000000000000000000081526004016104eb90611500565b60405180910390fd5b6040518060400160405280858152602001848152506002836020015160405161051d919061142d565b90815260200160405180910390206000820151816000019080519060200190610547929190610e86565b506020820151816001019080519060200190610564929190610e86565b5090505060405180604001604052808360000151815260200183602001518152506001846040516105959190611444565b908152602001604051809103902060008201518160000190805190602001906105bf929190610e86565b5060208201518160010190805190602001906105dc929190610e86565b50905050336000846040516105f19190611444565b908152602001604051809103902060006101000a81548173ffffffffffffffffffffffffffffffffffffffff021916908373ffffffffffffffffffffffffffffffffffffffff1602179055503373ffffffffffffffffffffffffffffffffffffffff167f46e4733c60e3dd55ec2a25f714f7eb6c0de2bad144b40b30f50a17208cca68198360200151868660405161068b939291906114b4565b60405180910390a25050505050565b6106a2610e6c565b6002826040516106b29190611444565b9081526020016040518091039020604051806040016040529081600082018054600181600116156101000203166002900480601f0160208091040260200160405190810160405280929190818152602001828054600181600116156101000203166002900480156107645780601f1061073957610100808354040283529160200191610764565b820191906000526020600020905b81548152906001019060200180831161074757829003601f168201915b50505050508152602001600182018054600181600116156101000203166002900480601f0160208091040260200160405190810160405280929190818152602001828054600181600116156101000203166002900480156108065780601f106107db57610100808354040283529160200191610806565b820191906000526020600020905b8154815290600101906020018083116107e957829003601f168201915b5050505050815250509050919050565b61081e610e6c565b60018260405161082e9190611444565b9081526020016040518091039020604051806040016040529081600082018054600181600116156101000203166002900480601f0160208091040260200160405190810160405280929190818152602001828054600181600116156101000203166002900480156108e05780601f106108b5576101008083540402835291602001916108e0565b820191906000526020600020905b8154815290600101906020018083116108c357829003601f168201915b50505050508152602001600182018054600181600116156101000203166002900480601f0160208091040260200160405190810160405280929190818152602001828054600181600116156101000203166002900480156109825780601f1061095757610100808354040283529160200191610982565b820191906000526020600020905b81548152906001019060200180831161096557829003601f168201915b5050505050815250509050919050565b600073ffffffffffffffffffffffffffffffffffffffff166000826040516109ba9190611444565b908152602001604051809103902060009054906101000a900473ffffffffffffffffffffffffffffffffffffffff1673ffffffffffffffffffffffffffffffffffffffff1614610a3f576040517f08c379a0000000000000000000000000000000000000000000000000000000008152600401610a3690611520565b60405180910390fd5b33600082604051610a509190611444565b908152602001604051809103902060006101000a81548173ffffffffffffffffffffffffffffffffffffffff021916908373ffffffffffffffffffffffffffffffffffffffff160217905550600360003373ffffffffffffffffffffffffffffffffffffffff1673ffffffffffffffffffffffffffffffffffffffff168152602001908152602001600020604051806040016040528084815260200183815250908060018154018082558091505090600182039060005260206000209060020201600090919290919091506000820151816000019080519060200190610b37929190610e86565b506020820151816001019080519060200190610b54929190610e86565b50505050604051806040016040528083815260200182815250600182604051610b7d9190611444565b90815260200160405180910390206000820151816000019080519060200190610ba7929190610e86565b506020820151816001019080519060200190610bc4929190610e86565b50905050604051806040016040528083815260200182815250600282604051610bed9190611444565b90815260200160405180910390206000820151816000019080519060200190610c17929190610e86565b506020820151816001019080519060200190610c34929190610e86565b509050503373ffffffffffffffffffffffffffffffffffffffff167ffd5d5c40a52e008593a05c6766aa83bff6c2fccb38b9171b60b3dc885db0adab8383604051610c8092919061147d565b60405180910390a25050565b6060600360003373ffffffffffffffffffffffffffffffffffffffff1673ffffffffffffffffffffffffffffffffffffffff168152602001908152602001600020805480602002602001604051908101604052809291908181526020016000905b82821015610e635783829060005260206000209060020201604051806040016040529081600082018054600181600116156101000203166002900480601f016020809104026020016040519081016040528092919081815260200182805460018160011615610100020316600290048015610da95780601f10610d7e57610100808354040283529160200191610da9565b820191906000526020600020905b815481529060010190602001808311610d8c57829003601f168201915b50505050508152602001600182018054600181600116156101000203166002900480601f016020809104026020016040519081016040528092919081815260200182805460018160011615610100020316600290048015610e4b5780601f10610e2057610100808354040283529160200191610e4b565b820191906000526020600020905b815481529060010190602001808311610e2e57829003601f168201915b50505050508152505081526020019060010190610ced565b50505050905090565b604051806040016040528060608152602001606081525090565b828054600181600116156101000203166002900490600052602060002090601f016020900481019282601f10610ec757805160ff1916838001178555610ef5565b82800160010185558215610ef5579182015b82811115610ef4578251825591602001919060010190610ed9565b5b509050610f029190610f06565b5090565b610f2891905b80821115610f24576000816000905550600101610f0c565b5090565b90565b600082601f830112610f3c57600080fd5b8135610f4f610f4a826115cf565b6115a2565b91508082526020830160208301858383011115610f6b57600080fd5b610f76838284611677565b50505092915050565b600060208284031215610f9157600080fd5b600082013567ffffffffffffffff811115610fab57600080fd5b610fb784828501610f2b565b91505092915050565b60008060408385031215610fd357600080fd5b600083013567ffffffffffffffff811115610fed57600080fd5b610ff985828601610f2b565b925050602083013567ffffffffffffffff81111561101657600080fd5b61102285828601610f2b565b9150509250929050565b60008060006060848603121561104157600080fd5b600084013567ffffffffffffffff81111561105b57600080fd5b61106786828701610f2b565b935050602084013567ffffffffffffffff81111561108457600080fd5b61109086828701610f2b565b925050604084013567ffffffffffffffff8111156110ad57600080fd5b6110b986828701610f2b565b9150509250925092565b60006110cf83836113e9565b905092915050565b60006110e28261160b565b6110ec8185611639565b9350836020820285016110fe856115fb565b8060005b8581101561113a578484038952815161111b85826110c3565b94506111268361162c565b925060208a01995050600181019050611102565b50829750879550505050505092915050565b600061115782611621565b611161818561165b565b9350611171818560208601611686565b61117a816116b9565b840191505092915050565b600061119082611621565b61119a818561166c565b93506111aa818560208601611686565b80840191505092915050565b60006111c182611616565b6111cb818561164a565b93506111db818560208601611686565b6111e4816116b9565b840191505092915050565b60006111fa82611616565b611204818561165b565b9350611214818560208601611686565b61121d816116b9565b840191505092915050565b600061123382611616565b61123d818561166c565b935061124d818560208601611686565b80840191505092915050565b600061126660308361165b565b91507f596f752063616e2065646974206f6e6c7920746865206c61737420766572736960008301527f6f6e206f6620796f75722066696c6521000000000000000000000000000000006020830152604082019050919050565b60006112cc601b8361165b565b91507f46696c6520616c726561647920696e207468652073797374656d2100000000006000830152602082019050919050565b600061130c60328361165b565b91507f546865206e65772076657273696f6e206f6620796f75722066696c652077617360008301527f20616c72656164792075706c6f616465642100000000000000000000000000006020830152604082019050919050565b6000611372601d8361165b565b91507f596f7520646964206e6f742075706c6f616420746861742066696c65210000006000830152602082019050919050565b600060408301600083015184820360008601526113c282826111b6565b915050602083015184820360208601526113dc82826111b6565b9150508091505092915050565b6000604083016000830151848203600086015261140682826111b6565b9150506020830151848203602086015261142082826111b6565b9150508091505092915050565b60006114398284611228565b915081905092915050565b60006114508284611185565b915081905092915050565b6000602082019050818103600083015261147581846110d7565b905092915050565b60006040820190508181036000830152611497818561114c565b905081810360208301526114ab818461114c565b90509392505050565b600060608201905081810360008301526114ce81866111ef565b905081810360208301526114e2818561114c565b905081810360408301526114f6818461114c565b9050949350505050565b6000602082019050818103600083015261151981611259565b9050919050565b60006020820190508181036000830152611539816112bf565b9050919050565b60006020820190508181036000830152611559816112ff565b9050919050565b6000602082019050818103600083015261157981611365565b9050919050565b6000602082019050818103600083015261159a81846113a5565b905092915050565b6000604051905081810181811067ffffffffffffffff821117156115c557600080fd5b8060405250919050565b600067ffffffffffffffff8211156115e657600080fd5b601f19601f8301169050602081019050919050565b6000819050602082019050919050565b600081519050919050565b600081519050919050565b600081519050919050565b6000602082019050919050565b600082825260208201905092915050565b600082825260208201905092915050565b600082825260208201905092915050565b600081905092915050565b82818337600083830152505050565b60005b838110156116a4578082015181840152602081019050611689565b838111156116b3576000848401525b50505050565b6000601f19601f830116905091905056fea365627a7a723158200dda2ec5756980d11896f29f0c375a478f8ead56c609fa296d0ee667cdff44276c6578706572696d656e74616cf564736f6c63430005100040",
  "source": "pragma solidity ^0.5.0;\r\npragma experimental ABIEncoderV2; // so that I can return structs from a function\r\n\r\ncontract DRDS {\r\n\r\n    struct FileInfo {\r\n        string fileName;\r\n        string fileHash;\r\n    }\r\n\r\n    mapping(string => address) fileHashes;\r\n    mapping(string => FileInfo) firstVersionOfFile;\r\n    mapping(string => FileInfo) latestVersionOfFile;\r\n    mapping(address => FileInfo[]) uploadedFiles;\r\n\r\n    event FileHashAdded(address indexed userAddress, string fileName, string fileHash);\r\n    event FileEdited(address indexed userAddress, string firstFileHash, string newFileName, string newFileHash);\r\n\r\n    function addFileHash(string memory _fileName, string memory _fileHash) public {\r\n        require(fileHashes[_fileHash] == address(0), \"File already in the system!\");\r\n\r\n        fileHashes[_fileHash] = msg.sender;\r\n        uploadedFiles[msg.sender].push(FileInfo(_fileName, _fileHash));\r\n\r\n        firstVersionOfFile[_fileHash] = FileInfo(_fileName, _fileHash);\r\n        latestVersionOfFile[_fileHash] = FileInfo(_fileName, _fileHash);\r\n\r\n        emit FileHashAdded(msg.sender, _fileName, _fileHash);\r\n    }\r\n\r\n    function editFile(string memory _oldFileHash, string memory _newFileName, string memory _newFileHash) public {\r\n        require(fileHashes[_oldFileHash] == msg.sender, \"You did not upload that file!\");\r\n        require(fileHashes[_newFileHash] == address(0), \"The new version of your file was already uploaded!\");\r\n\r\n        FileInfo memory _firstFileInfo = firstVersionOfFile[_oldFileHash];\r\n        string memory latestVersionFileInfoHash = latestVersionOfFile[_firstFileInfo.fileHash].fileHash;\r\n        require(keccak256(bytes(latestVersionFileInfoHash)) == keccak256(bytes(_oldFileHash)), \"You can edit only the last version of your file!\");\r\n\r\n        latestVersionOfFile[_firstFileInfo.fileHash] = FileInfo(_newFileName, _newFileHash);\r\n        firstVersionOfFile[_newFileHash] = FileInfo(_firstFileInfo.fileName, _firstFileInfo.fileHash);\r\n        fileHashes[_newFileHash] = msg.sender;\r\n\r\n        emit FileEdited(msg.sender, _firstFileInfo.fileHash, _newFileName, _newFileHash);\r\n    }\r\n\r\n    function getUploadedFiles() public view returns (FileInfo[] memory) {\r\n        return uploadedFiles[msg.sender];\r\n    }\r\n\r\n    function getLatestVersionOfFile(string memory _firstFileHash) public view returns (FileInfo memory) {\r\n        return latestVersionOfFile[_firstFileHash];\r\n    }\r\n\r\n    function getFirstVersionOfFile(string memory _editedFileHash) public view returns (FileInfo memory) {\r\n        return firstVersionOfFile[_editedFileHash];\r\n    }\r\n}",
  "sourcePath": "C:\\Users\\Ionut\\Desktop\\LICENTA FINAL PROJECT\\frontend\\src\\contracts\\DRDS.sol",
  "compiler": {
    "name": "solc",
    "version": "0.5.16+commit.9c3226ce.Emscripten.clang"
  },
  "schemaVersion": "3.1.0",
  "updatedAt": "2020-05-01T16:07:35.288Z",
  "networkType": "ethereum",
  "devdoc": {
    "methods": {}
  },
  "userdoc": {
    "methods": {}
  }
}